:100000000C9461080C94D0370C94A5370C947A3773
:100010000C944F370C9424370C94F9360C94CE364C
:100020000C94A3360C9492080C9492080C949208A9
:100030000C9492080C944A390C9492080C949208EF
:100040000C9492080C9492080C9492080C949208C8
:100050000C941F390C9492080C9492080C94593605
:100060000C9492080C942F360C9405360C9492083C
:100070000C9492080C9492080C9492080C94920898
:100080000C9492080C9492080C9492080C94920888
:100090000C9492080C9492080C9492080C94FB37E0
:1000A0000C9492080C9492080C9492080C94920868
:1000B0000C9492080C9492080C9492080C94920858
:1000C0000C9492080C9492080C9492080C94DB35D2
:1000D0000C94B1350C9492080C9487350C945D35D2
:1000E0000C9492080C944E2A0C94CA0D0C94592628
:1000F0000C94CC080C94CD2A0C94DA090C94AB47E0
:100100000C94350B0C94CA390C9423470C94C22AD6
:100110000C94AC120C943F0B0C94BA0D0C94120B73
:100120000C94EB490C94330C0C9432480C943C46E0
:100130000C94B80D0C94830A0C94DB2A0C94E32ADB
:100140000C94080B0C9447260C9421470C94062918
:100150000C94754B0C94230B0C946E280C94EB2A86
:100160000C94CD480C94310B0C942E290C94C5287A
:100170000C94350E0C94C52A0C943B0B0C940D4832
:100180000C9488480C942F260C944D0B0C94C84862
:100190000C9466260C941E480C942A280C942D0B63
:1001A0000C94340A0C94480B0C94AE290C947326CE
:1001B0000C94D10D0C941D470C94320E0C941F47D7
:1001C0000C94EF280C94D82A0C94E4490C94BF2A80
:1001D0000C944C280C9416090C9467490C94BB0D94
:1001E0000C94160B0C948D260C944F290C94270B11
:1001F0000C94D9490C94462A0C94F7480C947F2906
:100200000C941A0B0C94B1480C9425470C945C097F
:100210000C94490B0C94FE0D0C94D02A0C941D0BDD
:100220000C9480260C94B90D0C940E0B0C946B0955
:100230000C94F0080C94430B0C94E8090000210086
:10024000240027002A002D003000330001010000A7
:10025000040107010A0100002200250028002B00EC
:100260002E003100340002010000050108010B01DD
:10027000000020002300260029002C002F0032005F
:100280000001000003010601090105050505070538
:1002900008080808020202020A0A08080404040402
:1002A000010101010101010103030303030303032E
:1002B000040707070C0C0C0C0C0C0C0C02020202BD
:1002C00006060606060606060B0B0B0B0B0B0B0BA6
:1002D0000102102020080810204010204080020158
:1002E000020108040201010204081020408080403D
:1002F000201008040201800402018040201008043C
:1003000002010804020101020408102040800102D9
:1003100004081020408000000A0B02090C0D0E0892
:1003200007030401000000000000000000000000BE
:1003300000000000000000000000000000000000BD
:10034000000012111000000000000000000000007A
:10035000000000000000000000000000000000009D
:10036000000000000000000000000000000000008D
:1003700000001FCC000C000000000000000008007E
:10038000300060000800300060000000022003FC24
:100390001E20022003FC1E200220000000000E1878
:1003A00011043FFF10840C78000000000F0010843F
:1003B0000F3800C0077818840078000000780F8498
:1003C00010C411240E9800E400840008080068009E
:1003D00070000000000000000000000000000000AD
:1003E000000007E01818200440020000000040024E
:1003F0002004181807E0000000000000024002403E
:1004000001800FF001800240024000000080008067
:1004100000800FF800800080008000000001000DC7
:10042000000E00000000000000000000000000803E
:100430000080008000800080008000800000000CB0
:10044000000C00000000000000000000000000069A
:10045000001800600180060018002000000007F06E
:10046000080810041004080807F000000000080441
:1004700008041FFC000400040000000000000E0C33
:1004800010141024104411840E0C000000000C18ED
:1004900010041104110412880C700000000000E028
:1004A0000320042408241FFC0024000000001F98DF
:1004B000108411041104108810700000000007F06F
:1004C00008881104110418880070000000001C0046
:1004D000100010FC13001C001000000000000E387B
:1004E00011441084108411440E38000000000700ED
:1004F000088C10441044088807F000000000000039
:100500000000030C030C00000000000000000000CD
:100510000001010600000000000000000000008053
:1005200001400220041008081004000002200220EC
:1005300002200220022002200220000000001004FD
:1005400008080410022001400080000000000E0096
:100550001200100C106C10800F00000003E00C184B
:1005600013E4142417C4082807D000000004003C3A
:1005700003C41C40074000E4001C000410041FFCDE
:100580001104110411040E880070000003E00C181F
:1005900010041004100410081C10000010041FFCAC
:1005A000100410041004080807F0000010041FFCD9
:1005B0001104110417C410040818000010041FFCD3
:1005C0001104110017C010000800000003E00C180F
:1005D0001004100410441C780040000010041FFC9C
:1005E00010840080008010841FFC100400001004A0
:1005F00010041FFC100410040000000000030001A0
:10060000100110011FFE10001000000010041FFC5C
:10061000110403801464181C1004000010041FFC53
:100620001004000400040004000C000010041FFC6F
:100630001F0000FC1F001FFC1004000010041FFC22
:100640000C04030000E010181FFC100007F008085D
:10065000100410041004080807F0000010041FFC28
:1006600010841080108010800F00000007F0081820
:1006700010241024101C080A07F2000010041FFCAC
:100680001104110011C011300E0C000400000E1CEA
:1006900011041084108410441C380000180010004D
:1006A00010041FFC100410001800000010001FF8B8
:1006B00010040004000410041FF8100010001E00B5
:1006C00011E0001C007013801C0010001FC0103CC3
:1006D00000E01F0000E0103C1FC000001004180CD8
:1006E000163401C001C01634180C100410001C0090
:1006F000130400FC13041C00100000000804101C6C
:100700001064108413041C04101800000000000082
:1007100000007FFE40024002400200000000300066
:100720000C0003800060001C000300000000400279
:10073000400240027FFE00000000000000000000B8
:1007400020004000400040002000000000010001A7
:100750000001000100010001000100010000400053
:100760004000200000000000000000000000009891
:10077000012401440144014400FC000410001FFC5A
:10078000008801040104008800700000000000706F
:1007900000880104010401040088000000000070CA
:1007A00000880104010411081FFC0004000000F887
:1007B000014401440144014400C800000000010458
:1007C00001040FFC1104110411001800000000D6F0
:1007D00001290129012901C90106000010041FFC9B
:1007E000008401000100010400FC00040000010479
:1007F000190419FC000400040000000000000003BC
:1008000000010101190119FE0000000010041FFC85
:100810000024004001B4010C010400000000100499
:1008200010041FFC0004000400000000010401FC8F
:100830000104010001FC0104010000FC010401FCB1
:10084000008401000100010400FC0004000000F825
:10085000010401040104010400F80000010101FF8A
:100860000085010401040088007000000000007091
:10087000008801040104010501FF000101040104D5
:1008800001FC00840104010001800000000000CC94
:10089000012401240124012401980000000001002A
:1008A000010007F80104010400000000010001F844
:1008B000000400040004010801FC000401000180A0
:1008C0000170000C001001600180010001F0010CBA
:1008D000003001C00030010C01F0010000000104F3
:1008E000018C00740170018C010400000101018180
:1008F0000171000E001801600180010000000184F8
:10090000010C013401440184010C000000000000CE
:100910000000000001003EFC400240020000000018
:1009200000000000FFFF0000000000000000400287
:1009300040023EFC010000000000000000006000DA
:1009400080008000400040002000200000000000E7
:100950000000000000000000000000003F40000018
:1009600000000000000030004000300040000000A7
:1009700009000BC03D000BC03D00090018C0244019
:100980007FE0224031800000180024C01B000D8051
:100990003240018003801C4027401C8007400040FB
:1009A00010006000000000000000000000000000D7
:1009B00000001F80204040200000402020401F8079
:1009C00000000000090006001F800600090000006A
:1009D000040004003F8004000400000000100060D8
:1009E00000000000000000000400040004000400F7
:1009F00004000000000000400000000000000000B3
:100A0000002001C006003800400000001F80204088
:100A1000204020401F800000000010403FC00040E8
:100A20000000000018C0214022402440184000006F
:100A300010802040244024401B80000002000D0054
:100A400011003FC0014000003C802440244024406D
:100A5000238000001F802440244034400380000095
:100A60003000200027C03800200000001B802440F8
:100A7000244024401B8000001C0022C02240224051
:100A80001F8000000000000008400000000000007F
:100A900000000000046000000000000000000400EE
:100AA0000A001100208040400900090009000900E7
:100AB0000900000000004040208011000A000400EE
:100AC0001800200023402400180000001F80204050
:100AD000274029401F400000004007C039000F0098
:100AE00001C0004020403FC0244024401B80000043
:100AF0001F802040204020403080000020403FC028
:100B0000204020401F80000020403FC024402E4055
:100B100030C0000020403FC024402E0030000000C4
:100B20000F001080204022403380020020403FC050
:100B3000040004003FC02040204020403FC020402F
:100B4000204000000060202020203FC02000200026
:100B500020403FC024400B0030C0204020403FC018
:100B600020400040004000C03FC03C0003C03C00AB
:100B70003FC0000020403FC00C4023003FC0200089
:100B80001F802040204020401F80000020403FC0A8
:100B900024402400180000001F802140214020E054
:100BA0001FA0000020403FC02440260019C0004084
:100BB00018C02440244022403180000030002040F2
:100BC0003FC020403000000020003F800040004037
:100BD0003F80200020003E0001C0070038002000B8
:100BE000380007C03C0007C038000000204039C072
:100BF000060039C0204000002000384007C03840BF
:100C000020000000304021C02640384020C00000B5
:100C1000000000007FE04020402000000000700045
:100C20000C000380004000000000402040207FE0D6
:100C30000000000000002000400020000000000034
:100C40000010001000100010001000100000000044
:100C50004000000000000000000002800540054048
:100C600003C0004020003FC0044004400380000057
:100C700000000380044004400640000000000380A0
:100C8000044024403FC00040000003800540054070
:100C900003400000000004401FC024402440200006
:100CA000000002E0055005500650042020403FC0DF
:100CB0000440040003C000400000044027C000407E
:100CC0000000000000100010041027E000000000E9
:100CD00020403FC00140070004C0044020402040A5
:100CE0003FC000400040000007C0040007C00400EF
:100CF00003C00000044007C00440040003C00040DB
:100D0000000003800440044003800000041007F04A
:100D1000045004400380000000000380044004509D
:100D200007F00010044007C0024004000400000067
:100D3000000006400540054004C00000000004001B
:100D40001F80044000400000040007800040044071
:100D500007C000400400070004C001800600040032
:100D6000060001C0070001C006000000044006C0E4
:100D7000010006C0044000000410071004E00180D8
:100D8000060004000000044005C0064004400000C6
:100D90000000000004007BE0402000000000000094
:100DA0000000FFF000000000000040207BE0040095
:100DB00000000000400080004000200020004000B3
:100DC000000000000000000000005F0000000000C4
:100DD000000007000700000000147F147F140000CB
:100DE00000242A7F2A1200000023130864620000F6
:100DF00000060909060000000000050300000000CD
:100E0000001C2241000000000041221C00000000E4
:100E100000082A1C2A0800000008083E08080000F4
:100E200000A060000000000000080808080800009A
:100E300000606000000000000020100804020000B4
:100E4000003E5149453E00000000427F4000000046
:100E500000625149494600000022414949360000DC
:100E6000001814127F100000002745454539000086
:100E7000003C4A49493000000001710905030000A7
:100E8000003649494936000000064949291E00003C
:100E900000003636000000000000AC6C00000000CE
:100EA000000814224100000000141414141400005F
:100EB0000041221408000000000201510906000050
:100EC00000324979413E0000007E0909097E000098
:100ED000007F494949360000003E4141412200005F
:100EE000007F4141221C0000007F49494941000028
:100EF000007F090909010000003E414151720000D4
:100F0000007F0808087F00000000417F41000000CA
:100F1000002040413F010000007F081422410000F2
:100F2000007F404040400000007F020C027F000034
:100F3000007F0408107F0000003E4141413E000058
:100F4000007F090909060000003E4151215E0000B2
:100F5000007F09192946000000264949493200004E
:100F60000001017F01010000003F4040403F0000C0
:100F7000001F2040201F0000003F4038403F00007D
:100F800000631408146300000003047804030000E5
:100F90000061514945430000007F414100000000CD
:100FA00000020408102000000041417F0000000002
:100FB00000040201020400000080808080800000A4
:100FC0000001020400000000002054545478000086
:100FD000007F4844443800000038444428000000A2
:100FE00000384444487F000000385454541800002E
:100FF00000087E09020000000018A4A4A47C0000E0
:10100000007F08040478000000007D00000000005C
:101010000080847D00000000007F10284400000054
:1010200000417F4000000000007C041804780000AC
:10103000007C08047C0000000038444438000000B4
:1010400000FC24241800000000182424FC000000E8
:1010500000007C08040000000048545424000000F4
:1010600000047F4400000000003C40407C00000081
:10107000001C2040201C0000003C4030403C000090
:101080000044281028440000001CA0A07C000000A0
:10109000004464544C440000000836410000000045
:1010A00000007F0000000000004136080000000042
:1010B000000201010201000000020505020000001B
:1010C000CA3911241FBECFEFD1E2DEBFCDBF00E091
:1010D0000CBF19E0A0E0B2E0E8E5F3EA00E00BBFE6
:1010E00002C007900D92AE3DB107D9F720E1AEEDF9
:1010F000B9E001C01D92AC3FB207E1F718E0C1E6CC
:10110000D8E000E006C021970109802FFE010E946F
:10111000774EC036D10780E00807A9F70E94DE3A73
:101120000C94AA510C940000CF93DF93EC01E88556
:10113000F9851995688379838A839B831C821D8234
:101140001E821F8281E08A87DF91CF9108953FB789
:10115000F8948091410B9091420BA091430BB09178
:10116000440B26B5A89B05C02F3F19F00196A11D81
:10117000B11D3FBFBA2FA92F982F8827BC01CD01E1
:10118000620F711D811D911D42E0660F771F881F40
:10119000991F4A95D1F708952FB7F89460913D0BA8
:1011A00070913E0B80913F0B9091400B2FBF0895A3
:1011B0000E94CC0828EE33E040E050E00E940E4E42
:1011C000CA01B90108958CBD9DBD089591E0909329
:1011D000430E8093650E1092440E1092660E089591
:1011E0009091160E8091150E2FEF3FEF981748F44F
:1011F000E92FF0E0EB50F24F208130E09F5F9093B9
:10120000160EC90108959091160E8091150E2FEFBC
:101210003FEF981748F4E92FF0E0EB50F24F2081B0
:1012200030E09F5F9093160EC9010895AF92BF9270
:10123000CF92DF92EF92FF920F931F93CF93DF93A2
:101240006C017B018B01040F151FEB015E01AE18D1
:10125000BF08C017D10759F06991D601ED91FC91F3
:101260000190F081E02DC6011995892B79F7C50110
:10127000DF91CF911F910F91FF90EF90DF90CF9072
:10128000BF90AF900895FC01A089B1898C91A68987
:10129000B78982FD0FC09C91818D8F5F8F73228DE6
:1012A000821749F0A18DAE0FBF2FB11D5D969C93A3
:1012B000818F08958C910895FC01538D448D252FC5
:1012C00030E0842F90E0821B930B541710F0CF96E0
:1012D000089501970895FC01918D828D981761F012
:1012E000A28DAE0FBF2FB11D5D968C91928D9F5F29
:1012F0009F73928F90E008958FEF9FEF08958F92E4
:101300009F92AF92BF92CF92DF92EF92FF920F9394
:101310001F93CF93DF936B0197E6E92E9EE0F92EA2
:10132000D0E0C0E0082F880F110B0E94CC0860931A
:10133000980E7093990E80939A0E90939B0E80E96D
:101340009EE00E946B0997FF29C00E94CC08809004
:10135000980E9090990EA0909A0EB0909B0E6819DE
:1013600079098A099B098090940E9090950EA0901F
:10137000960EB090970E681579058A059B05F8F2D0
:10138000CE01DF91CF911F910F91FF90EF90DF90F1
:10139000CF90BF90AF909F908F9008950817190736
:1013A00079F3F70181937F012196CC16DD0609F0D0
:1013B000BCCFE6CFFC01918D828D981731F0828DE4
:1013C000E80FF11D858D90E008958FEF9FEF089550
:1013D000FC01918D228D892F90E0805C9F4F821BB4
:1013E00091098F739927089580E99EE00E94E8098A
:1013F00021E0892B09F420E0822F08958DE29FE0FF
:101400000E94E80921E0892B09F420E0822F089549
:101410008AEC9FE00E94E80921E0892B09F420E092
:10142000822F0895FC01A48DA80FB92FB11DA35AD6
:10143000BF4F2C91848D90E001968F739927848FF4
:10144000A689B7892C93A089B1898C918370806417
:101450008C93938D848D981306C00288F389E02DB8
:1014600080818F7D80830895EF92FF920F931F9369
:10147000CF93DF93EC0181E0888F9B8D8C8D981347
:101480001AC0E889F989808185FF15C09FB7F89453
:10149000EE89FF896083E889F9898081837080649F
:1014A00080839FBF81E090E0DF91CF911F910F91EA
:1014B000FF90EF900895F62E0B8D10E00F5F1F4FF9
:1014C0000F731127E02E8C8D8E110CC00FB607FC08
:1014D000FACFE889F989808185FFF5CFCE010E9496
:1014E000120AF1CFEB8DEC0FFD2FF11DE35AFF4FE8
:1014F000F0829FB7F8940B8FEA89FB898081806224
:10150000CFCF0C94340ACF93DF93EC01888D8823DE
:10151000B9F0AA89BB89E889F9898C9185FD03C056
:10152000808186FD0DC00FB607FCF7CF8C9185FF3B
:10153000F2CF808185FFEDCFCE010E94120AE9CF64
:10154000DF91CF910895CF93DF93EC010E94830A3E
:10155000EA89FB8980818F7E8083EA89FB8980818B
:10156000877F8083EA89FB8980818F778083EA89FE
:10157000FB8980818F7D80838A8D898FDF91CF91D8
:10158000089580E090E0892B29F00E94080A8111DB
:101590000E94000080E090E0892B49F080E090E01C
:1015A000892B29F00E94000081110E94000080E038
:1015B00090E0892B29F00E94FE0981110E94000011
:1015C00080E090E0892B29F00E94F40981110C94AD
:1015D000000008958150823108F05AC0E82FF0E0F1
:1015E0008827EA50F54F8F4F0C94774E160B1A0B45
:1015F000080B0E0B120B480B1D0B230B270B2D0B8F
:10160000310B350B3B0B3F0B480B430B490B4D0B81
:10161000809180008F778093800008958091800072
:101620008F7DF9CF80918000877FF5CF84B58F774C
:1016300084BD089584B58F7DFBCF8091B0008F77F6
:101640008093B00008958091B0008F7DF9CF809194
:1016500090008F77809390000895809190008F7D07
:10166000F9CF80919000877FF5CF8091A0008F7790
:101670008093A00008958091A0008F7DF9CF809184
:10168000A000877FF5CF809120018F778093200184
:101690000895809120018F7DF9CF80912001877F6F
:1016A000F5CFCF93DF93282F30E0F901EA5EFC4FAE
:1016B0008491F901E053FD4FD491F901E657FD4FB4
:1016C000C491CC23A1F081110E94EA0AEC2FF0E032
:1016D000EE0FFF1FE059FD4FA591B491EC91ED2362
:1016E00081E090E009F480E0DF91CF91089580E0FF
:1016F00090E0FACF1F93CF93DF93282F30E0F901CA
:10170000EA5EFC4F8491F901E053FD4FD491F90159
:10171000E657FD4FC491CC23A9F0162F81110E94EA
:10172000EA0AEC2FF0E0EE0FFF1FEA5AFD4FA591F9
:10173000B4918FB7F894EC91111108C0D095DE23C5
:10174000DC938FBFDF91CF911F910895DE2BF8CFEF
:10175000CF93DF9390E0FC01E053FD4F2491865737
:101760009D4FFC0184918823C9F090E0880F991F58
:10177000FC01E45CFD4FA591B491FC01EA5AFD4FD8
:10178000C591D49161110DC09FB7F8948C912095AB
:1017900082238C938881282328839FBFDF91CF9158
:1017A0000895623051F49FB7F8943C91822F809550
:1017B00083238C93E8812E2BEFCF8FB7F894EC9195
:1017C0002E2B2C938FBFEACF90917B009860909343
:1017D0007B002091130290E4299F900111248770CF
:1017E000822B80937C0080917A00806480937A00C1
:1017F00080917A0086FDFCCF8091780090917900ED
:1018000008958F929F92AF92BF92CF92DF92EF9204
:10181000FF924B015C010E94A7086B017C010E94B2
:10182000A7086C197D098E099F09683E73408105E0
:101830009105A8F321E0821A9108A108B10888EE69
:10184000C80E83E0D81EE11CF11C81149104A10490
:10185000B10429F7FF90EF90DF90CF90BF90AF9049
:101860009F908F9008950895CF92DF92EF92FF920C
:101870000F931F93CF93DF93EC01CC80DD80EE803C
:10188000FF802A8560E070E0CB01222359F0E885D3
:10189000F9851995088119812A813B81601B710B9B
:1018A000820B930B6C0D7D1D8E1D9F1DDF91CF91C3
:1018B0001F910F91FF90EF90DF90CF9008952091AE
:1018C000170B260F3327331F21323105ECF42091FB
:1018D0003D0EFC0190E080E0243069F082E0089544
:1018E000A091170B2191AC014B50554FA40FB52F70
:1018F000B11D2C930196861798F38091170B680FF2
:101900006093170B80E0089581E0089510923D0EDA
:1019100081E080933C0E1092170E61E084E10E94FA
:101920007A0B61E085E10E947A0BE9EBF0E08081BF
:101930008E7F808380818D7F808388E48093B80050
:1019400085E48093BC000895CF93DF9391E090935A
:10195000F40A8823B9F0C091B800D091BA00809100
:10196000BC008A7B8093BC0060E084E10E947A0B1B
:1019700060E085E10E947A0B0E94860CD093BA0049
:10198000C093B800DF91CF9108958F929F92AF924C
:10199000BF92CF92DF92EF92FF920F931F93CF935C
:1019A000DF93D091660ED13208F0D7C0182FC091C6
:1019B000650E0E94A7086B017C0180913D0E81118C
:1019C0006BC082E080933D0E10933C0E8FEF8093AE
:1019D0003B0E10923A0ED093390EA5E4BEE0E9E139
:1019E000FEE080E0D81391C01092180E8091180E7E
:1019F000CC0FC82BC093180E8091170E813009F0C0
:101A000088C01092170E0E94A7086B017C0180917C
:101A1000180E8093BB0080913F0E9091400EA091D4
:101A2000410EB091420E892B8A2B8B2BA1F00E9484
:101A3000A70800913F0E1091400E2091410E309169
:101A4000420E6C197D098E099F0906171707280792
:101A5000390708F442C08091BC0083FDD8CF85ECE3
:101A60008093BC000E94A7086B017C0180913D0E11
:101A7000823009F450C080913B0E8F3F09F46FC053
:101A800080913B0E803209F46CC080913B0E803314
:101A900009F469C084E026C080913F0E9091400E09
:101AA000A091410EB091420E892B8A2B8B2B09F409
:101AB00084CF0E94A70880903F0E9090400EA09087
:101AC000410EB090420E6C197D098E099F09861651
:101AD0009706A806B90608F070CF80913E0E0E94C6
:101AE000A40C85E01092440E1092660E1092430EE4
:101AF000DF91CF911F910F91FF90EF90DF90CF90EA
:101B0000BF90AF909F908F9008959D9191938F5F1C
:101B100069CF85EEA5CF80913F0E9091400EA091A8
:101B2000410EB091420E892B8A2B8B2B09F49ECF4C
:101B30000E94A70800913F0E1091400E2091410E87
:101B40003091420E6C197D098E099F0906171707FF
:101B50002807390708F08ACFC0CF81E0C3CF80E0E3
:101B6000C1CF82E0BFCF83E0BDCF81E00C94C50C34
:101B7000089508950895E091160E8091150EE817C6
:101B800030F4F0E0EB50F24F808190E008958FEF59
:101B90009FEF08958091150E9091160E891B990B59
:101BA0000895CF92DF92EF92FF920F931F93CF93FE
:101BB000DF937C01CB018A012091430E222389F01F
:101BC000EB016B01C40ED51ECC15DD0569F06991E2
:101BD000D701ED91FC910190F081E02DC70119959D
:101BE000F3CF642F0E945F0CC801DF91CF911F914A
:101BF0000F91FF90EF90DF90CF900895CF93DF93F8
:101C00001F92CDB7DEB769832091430E2223F9F0EE
:101C10002091660E203258F021E030E0FC01338341
:101C2000228390E080E00F90DF91CF910895809122
:101C3000440EE82FF0E0EB5BF14F998190838F5FCA
:101C40008093440E8093660E81E090E0ECCF61E0DB
:101C5000CE0101960E945F0CF7CF682F87E690E1D6
:101C60000C94FE0D90E080E008950895FC01E61BC1
:101C7000F70B681779071CF0FB01E81BF90B9C01B7
:101C8000241B350B481759071CF09A01281B390BE8
:101C9000DA01A61BB70B641775071CF0DB01A41B48
:101CA000B50B2E173F075CF0AE17BF072CF0860F61
:101CB000971F959587950895E217F3072CF0840FE9
:101CC000951FA217B307ACF7640F751FCB01F1CFB7
:101CD0000CB405FC0DC09EBD00000DB407FEFDCF89
:101CE0009EB58EBD00000DB407FEFDCF8EB50895E4
:101CF0008EBD00000DB407FEFDCF8EB59EBD000069
:101D00000DB407FEFDCF9EB5089560E08BE10E9403
:101D10007A0B60E08DE10E947A0B80E991E090936C
:101D2000B90D8093B80D1092B60D1092B50D0895AF
:101D30004F925F926F927F928F929F92AF92BF92DB
:101D4000CF92DF92EF92FF920F931F93CF93DF9387
:101D500000D000D0CDB7DEB79E838D832A013B0132
:101D6000FC01008511856801F12CE12C8285882316
:101D700009F455C080809180A280B380A7019801AA
:101D8000281939094A095B0964817581868197811F
:101D90000E943F4EA70198010E94E44D29833A8397
:101DA0004B835C83A5019401C301B2010E943F4EA5
:101DB00089809A80AB80BC80860E971EA81EB91EB3
:101DC000ED81FE8184829582A682B7821695079561
:101DD000ED81FE816481758186819781600F711F1D
:101DE000811D911DA70196010E94E44DCA01B90110
:101DF00026960FB6F894DEBF0FBECDBFDF91CF9110
:101E00001F910F91FF90EF90DF90CF90BF90AF9018
:101E10009F908F907F906F905F904F900895AB014F
:101E20009201C701B8010E943F4EED81FE8164839B
:101E300075838683978381E08287C8CF8FE60E946F
:101E4000E60883E090E00E942D0E81E090E00E9481
:101E50002D0E0E94B50D61E084E00C947A0B8F92F8
:101E60009F92AF92BF92CF92DF92EF92FF92811139
:101E700091C08091F40D81110BC090E080E0FF9043
:101E8000EF90DF90CF90BF90AF909F908F9008958C
:101E90008FE00E94E40B181619067CF76091D50DAF
:101EA0007091D60D90E080E0625E7F4F8F4F9F4F24
:101EB0009B01AC010E943F4E29E233E040E050E03C
:101EC0000E94E44D24363105410551050CF060C0F7
:101ED0006091CB0D7091CC0D90E080E0625E7F4F01
:101EE0008F4F9F4F9B01AC010E943F4E2EE334E089
:101EF00040E050E00E94E44D2B343105410551058E
:101F00000CF046C06091CB0D7091CC0D90E080E05C
:101F1000625E7F4F8F4F9F4F9B01AC010E943F4EEF
:101F200020EB34E040E050E00E94E44D22333105E4
:101F3000410551056CF56091CB0D7091CC0D90E091
:101F400080E0625E7F4F8F4F9F4F9B01AC010E94EC
:101F50003F4E2CED35E040E050E00E94E44D293149
:101F6000310541055105A4F46091CB0D7091CC0D64
:101F700090E080E0625E7F4F8F4F9F4F9B01AC01EE
:101F80000E943F4E24EC39E040E050E00E94E44DD6
:101F9000C90175CF8130F9F48091F40D882309F4DB
:101FA0006CCF8FE00E94E40B181619060CF065CF79
:101FB0006091CF0D7091D00D90E080E064577F4F1D
:101FC0008F4F9F4F9B01AC010E943F4E2CED39E299
:101FD00040E050E0DBCF8230D1F48FE00E94E40B90
:101FE000181619060CF049CF6091CB0D7091CC0DED
:101FF00090E080E0625E7F4F8F4F9F4F9B01AC016E
:102000000E943F4E2CE63AE240E050E0BFCF809184
:10201000F40D882309F431CF8091D50D9091D60D20
:102020008436910508F429CF8091CF0D9091D00D81
:10203000059708F45DC02091D50D3091D60DE09044
:10204000CF0DF090D00DE091D50DF091D60D4091CF
:10205000CF0D5091D00DA4E6B0E00E94304E4B0160
:102060005C019701AEE1B0E00E94304E860E971EF3
:10207000A81EB91E80EF880E8AE0981EA11CB11C14
:102080009F01AAE0B0E00E94304E6B017C01DA01B2
:102090002DEF3FEF4FEF5FEF0E94034EA701960138
:1020A000260F371F481F591F285131404109510938
:1020B000C501B4010E94E44DBA01A9018FE790E186
:1020C0000E94980E9B01AC01243631054105510553
:1020D00024F023E630E040E050E02A3031054105AD
:1020E00051050CF055CF2AE030E040E050E050CFF1
:1020F0008AE090E0C4CE8091EC0A811160C0109219
:10210000D80D1092D70D2AE936ED30936C0D20933F
:102110006B0D88E292E490935C0B80935B0B3093A1
:102120005E0B20935D0B80EE97E09093A70D80935C
:10213000A60D3093DC0A2093DB0A60EE7FEF7093EC
:10214000600B60935F0B20E038EF3093DA0A209346
:10215000D90A1092E00A1092DF0A4FEF5FEF509316
:10216000DE0A4093DD0A1092B10D1092B00D9093EB
:10217000AF0D8093AE0D3093AA0D2093A90D9093CF
:10218000E60A8093E50A4FE150E05093E20A40935B
:10219000E10A9093E10D8093E00D7093DD0D609363
:1021A000DC0D3093E80D2093E70D88E49AE49093DA
:1021B000E60D8093E50D5093E40D4093E30D80917F
:1021C000EC0A813009F062C01092D80D1092D70D40
:1021D00080E098EF90936C0D80936B0D40E058E594
:1021E00050935C0B40935B0B90935E0B80935D0B65
:1021F00020E832E03093A70D2093A60D5093DC0A1F
:102200004093DB0A41E256EC5093600B40935F0B26
:102210001092DA0A1092D90A1092E00A1092DF0A9C
:1022200067E07CEF7093DE0A6093DD0A1092B10DD7
:102230001092B00D60EE77E07093AF0D6093AE0D2D
:102240009093AA0D8093A90D3093E60A2093E50A96
:102250006CE470E07093E20A6093E10A3093E10D60
:102260002093E00D5093DD0D4093DC0D9093E80D2D
:102270008093E70D88E49AE49093E60D8093E50D52
:1022800080EE9FEF9093E40D8093E30D8091EC0A34
:10229000823009F060C01092D80D1092D70D2BE457
:1022A0003BE630936C0D20936B0D88E49AE4909399
:1022B0005C0B80935B0B30935E0B20935D0B20E8EF
:1022C00032E03093A70D2093A60D9093DC0A809303
:1022D000DB0A61E276EC7093600B60935F0B109207
:1022E000DA0A1092D90A1092E00A1092DF0A90934B
:1022F000DE0A8093DD0A1092B10D1092B00D40EE0F
:1023000057E05093AF0D4093AE0D40E058EF50931F
:10231000AA0D4093A90D3093E60A2093E50AECE458
:10232000F0E0F093E20AE093E10A3093E10D2093AC
:10233000E00D7093DD0D6093DC0D5093E80D40933C
:10234000E70D9093E60D8093E50D80EE9FEF90935F
:10235000E40D8093E30D0895813041F028F0823040
:10236000D1F0833049F108950C94850E61E08BE142
:102370000E947A0B60E08DE10E947A0B84EF91E07D
:102380009093B90D8093B80D8CE791E09093B60DC2
:102390008093B50D089560E08BE10E947A0B61E0B7
:1023A0008DE10E947A0B86E292E09093B90D8093C2
:1023B000B80D84EA91E0EACF61E08BE10E947A0BEC
:1023C00061E08DE10E947A0B84EC99E09093B90D65
:1023D0008093B80D80EE91E0D9CFF8948BE00E9405
:1023E000E40B789488389105FCF08F3B9105F4F06C
:1023F000863F9105ECF08C3221E09207DCF08336C9
:1024000021E09207CCF08A3921E09207BCF0813DAF
:1024100021E09207ACF0883022E092079CF08E33E6
:10242000924094F081E008958AE0089589E008954B
:1024300088E0089587E0089586E0089585E008958E
:1024400084E0089583E0089582E00895F8948BE095
:102450000E94E40B9C017894863791054CF18358D7
:1024600091098534910530F18255910985349105A2
:1024700018F1835591098534910500F1855591092D
:1024800085349105E8F08255910985349105D0F0A5
:102490008355910985349105B8F0855591098534A6
:1024A0009105A0F081E02C3033408CF080E008955D
:1024B0008AE0089589E0089587E0089586E0089508
:1024C00085E0089584E0089583E0089582E008950A
:1024D000F8948BE00E94E40B78948236910564F1C5
:1024E0009C01255631092B33310540F12054310927
:1024F0002C33310528F1215431092733310510F1EE
:102500002C53310927333105F8F02C5331092C3382
:102510003105E0F0215431092C333105C8F0215444
:1025200031092C313105B0F02152310981E02C35CF
:10253000310588F080E008958AE0089589E00895E3
:1025400087E0089586E0089585E0089584E0089581
:1025500083E0089582E00895A895089508958EBDBA
:1025600000000DB407FEFDCF8EB50895CF93C82FA0
:10257000662399F0409AF89480918F0E81110FC0D4
:1025800042988CE591E00E94E3088C2F0E94AF12E4
:10259000429A289A7894CF9108954098ECCF289841
:1025A000F0CFCF93C62F60E00E94B61261E08C2F6F
:1025B000CF910C94B6121F93CF93DF93182FEB019A
:1025C000692F82E00E94D112612F83E00E94D11214
:1025D0006D2F86E00E94D1126C2F87E0DF91CF91A2
:1025E0001F910C94D112CF93DF93813421E0920795
:1025F00020F5613F710508F5EA019B01BC0180EF00
:1026000090E0821B930B0E94DB1260E082E20E944A
:10261000B612409AF89480918F0E811111C04298A1
:102620008CE591E00E94E3088D2F0E94AF128C2F61
:102630000E94AF12429A289A7894DF91CF91089520
:102640002898EECF8F929F92AF92BF92CF92DF9257
:10265000EF92FF920F931F93CF93DF935C01EB01F7
:102660007901E60EF71E6A01C80ED91ECE15DF05E8
:1026700079F045018C149D0449F0A801BE01C40104
:102680000E94F3128FEF881A980AF4CF2196EECFAA
:10269000DF91CF911F910F91FF90EF90DF90CF903E
:1026A000BF90AF909F908F9008952F923F924F923E
:1026B0005F926F927F928F929F92AF92BF92CF92D2
:1026C000DF92EF92FF920F931F93CF93DF9300D08F
:1026D00000D000D01F92CDB7DEB76B01342E252E6F
:1026E0007901280126E02E9DA0012F9D500D112477
:1026F0005C834B839A838983E981FA818191FA8390
:10270000E983882309F45EC090EE980F903608F0B4
:102710008FE38052990B23E0880F991F2A95E1F7E8
:102720004601B12CA12C9C012054324F3E832D83B5
:10273000ED81FE81EA0DFB1DE49139862A86712C1C
:10274000612C4E2F50E058874F838F819885062C3F
:1027500002C0959587950A94E2F780FF11C050E476
:10276000851651E0950660F489859A85803F91052C
:1027700038F482019701A701BC01C4010E94221311
:102780009FEF691A790AE985FA85EE0DFF1DFA8730
:10279000E987F8E06F167104C1F62FEFA21AB20AAA
:1027A0008E0C9F1C38E0A316B10409F0C1CF4FE393
:1027B000C41641E0D40608F09FCF8B819C81C80EDF
:1027C000D91E9ACF2A960FB6F894DEBF0FBECDBFA2
:1027D000DF91CF911F910F91FF90EF90DF90CF90FD
:1027E000BF90AF909F908F907F906F905F904F9031
:1027F0003F902F900895FF920F931F93CF93DF93F5
:10280000F82EEB018091EF0D811137C081E08093AC
:102810008F0EE0915B02F0E0E25DFD4F8081813040
:1028200021F4C091E50AD091E60AE0915B02F0E064
:10283000E25DFD4F8081823021F4C091E10AD091A8
:10284000E20A0091D70D1091D80D25E130E040E566
:1028500050E065E170E084EE90E00E942213F110F8
:1028600012C008E41AE423E030E045E150E064EEF1
:1028700070E08CEB94E00E945513DF91CF911F9193
:102880000F91FF90089581E0F8120AC08E0123E0B5
:1028900030E045E150E064EE70E080EC94E0EBCF96
:1028A00082E0F8120AC08E0123E030E045E150E0FA
:1028B00064EE70E084EC94E0DECF83E0F8120AC0AE
:1028C0008E0123E030E045E150E064EE70E088ECFA
:1028D00094E0D1CF84E0F8120AC08E0123E030E00A
:1028E00045E150E064EE70E08CEC94E0C4CF85E00C
:1028F000F8120AC08E0123E030E045E150E064EEBA
:1029000070E080ED94E0B7CF86E0F8120AC08E0147
:1029100023E030E045E150E064EE70E084ED94E0C7
:10292000AACF87E0F8120AC08E0123E030E045E12B
:1029300050E064EE70E088ED94E09DCF88E0F812FE
:102940000AC08E0123E030E045E150E064EE70E023
:1029500081EE94E090CF89E0F8120AC08E0123E066
:1029600030E045E150E064EE70E08CED94E083CF20
:102970008AE0F81282CF8E0123E030E045E150E09A
:1029800064EE70E080EE94E076CFFF920F931F9399
:10299000CF93DF938091EF0D81117EC081E0809312
:1029A0008F0EF090ED0DF11005C080917D0D882304
:1029B00009F44AC081E080937D0D08E212E420E131
:1029C00030E044E250E06AE070E08EE890E00E947F
:1029D0002213C091D70DD091D80DFF2059F08E0150
:1029E00023E030E045E150E064E270E085EE94E001
:1029F0000E9455138E0123E030E045E150E064E28F
:102A000070E088EE94E00E94551368EC70E080E07E
:102A100090E00E94010C0091E70D1091E80D23E079
:102A200030E045E150E064E270E088EE94E00E941E
:102A3000551368EC70E080E090E0DF91CF911F913A
:102A40000F91FF900C94010C8091F00D81112AC020
:102A50000091D70D1091D80D25E130E04AE550E006
:102A600065E170E08AE190E00E94221308E212E43E
:102A700023E030E045E150E064E270E08DEE94E068
:102A80000E94551320E130E044E250E06AE070E03B
:102A90008EE890E00E942213DF91CF911F910F9159
:102AA000FF9008958091F00D8130B1F70091D70D1E
:102AB0001091D80D25E130E04AE550E065E170E085
:102AC0008AE190E00E94221300EE1FEF23E030E045
:102AD00045E150E064E270E085EE94E00E94551319
:102AE0000091E00D1091E10DCDCF0F931F93209138
:102AF000EF0D21110EC08C0181E080938F0E20E13B
:102B000030E044E250E06AE070E08EE890E00E943D
:102B100022131F910F910895CF92DF92EF92FF92AF
:102B20000F931F93CF93DF938034E1E09E07C8F4A7
:102B3000603F7105B0F479016C01EB018B01040F6A
:102B4000151FC801003F110510F08FEE90E0C81767
:102B5000D90738F4A701BE01C6010E94F3122196DD
:102B6000F0CFDF91CF911F910F91FF90EF90DF9009
:102B7000CF900895CF92DF92EF92FF920F931F9321
:102B8000CF93DF938034E1E09E07D8F4603F710576
:102B9000C0F479018B01EC016C01C40ED51EC60195
:102BA00020E4C21621E0D20610F08FE391E0C817AE
:102BB000D90738F4A701B801CE010E94F31221967B
:102BC000EECFDF91CF911F910F91FF90EF90DF90AB
:102BD000CF9008952F923F924F925F926F927F9283
:102BE0008F929F92AF92BF92CF92DF92EF92FF921D
:102BF0000F931F93CF93DF9300D01F92CDB7DEB713
:102C00006C017C836B837A01290100915B0B10912D
:102C10005C0B9801A2010E948C15520182E0A81A57
:102C2000B1082B803C809FEF291A390A46018FEFAB
:102C3000881A980A9801A501B101C4010E948C1557
:102C400060905D0B70905E0BC6018E0D9F1D9A8388
:102C500089839301A2016B817C810E948C15930171
:102C6000A501B10189819A8101970E948C15980173
:102C7000A7016B817C81C6010E94BA15570192E0C1
:102C8000A91AB1089801A501B101C4010E94BA15A1
:102C90000B811C81040D151D9301A701B801C6010C
:102CA0000E94BA15B801615071099301A501C401D0
:102CB0000E94BA150091D70D1091D80D92012350A2
:102CC0003109A701435051096B817C816E5F7F4FB1
:102CD000C60102960E9422130F900F900F900F9042
:102CE000DF91CF911F910F91FF90EF90DF90CF90E8
:102CF000BF90AF909F908F907F906F905F904F901C
:102D00003F902F9008952F923F924F925F926F9233
:102D10007F928F929F92AF92BF92CF92DF92EF926B
:102D2000FF920F931F93CF93DF9300D01F92CDB7E5
:102D3000DEB76C017C836B837A01290100915D0B06
:102D400010915E0B9801A2010E948C15520182E045
:102D5000A81AB1082B803C809FEF291A390A460136
:102D60008FEF881A980A9801A501B101C4010E9449
:102D70008C1560905B0B70905C0BC6018E0D9F1DD7
:102D80009A8389839301A2016B817C810E948C15B7
:102D90009301A501B10189819A8101970E948C1547
:102DA0009801A7016B817C81C6010E94BA15570169
:102DB00092E0A91AB1089801A501B101C4010E94CD
:102DC000BA150B811C81040D151D9301A701B801D3
:102DD000C6010E94BA15B801615071099301A5019D
:102DE000C4010E94BA150091D70D1091D80D92011F
:102DF00024503109A701445051096B817C816E5FD9
:102E00007F4FC60102960E9422130F900F900F90E1
:102E10000F90DF91CF911F910F91FF90EF90DF9076
:102E2000CF90BF90AF909F908F907F906F905F906A
:102E30004F903F902F900895EF92FF920F931F9322
:102E4000CF93DF9381E080938F0E2EE130E04CE34F
:102E500050E06DEC70E082E890E00E948316C09133
:102E60006B0DD0916C0D8E0122E030E045ED50E00D
:102E700067E870E081EF94E00E9455132CE230E0A7
:102E800048E250E068E070E08EE090E00E94831637
:102E900024E030E042E150E068E170E086EF94E049
:102EA0000E9455132CE230E048E250E068E070E008
:102EB0008AE091E00E94831624E030E042E150E095
:102EC00062E171E088EF94E00E9455132CE230E05B
:102ED00048EC50E068E070E08CE390E00E94EA1576
:102EE0002CE230E048EC50E064E470E08CE390E0E9
:102EF0000E94EA15E0906E0D0091A60D1091A70DAD
:102F0000EE0CFF08F701EE57FB4F22E030E044E102
:102F100050E061E470E0808191810E945513F701D7
:102F2000E85EFD4F8E0122E030E040E550E061E4D4
:102F300070E0808191810E9455132EE130E040E5E0
:102F400050E06DE770E088E790E00E94831622E091
:102F500030E044E850E06CE770E08AEF94E00E94D3
:102F6000551310926F0D22E030E04EEB50E06EEC06
:102F700070E081E095E00E94551322E030E04EEBD6
:102F800050E06EEF70E081ED9AE00E94551322E070
:102F900030E045ED50E06EEC70E086E095E00E9498
:102FA000551322E030E045ED50E064EF70E08AE038
:102FB00095E00E945513DF91CF911F910F91FF90E3
:102FC000EF9008952F923F924F925F926F927F926F
:102FD0008F929F92AF92BF92CF92DF92EF92FF9229
:102FE0000F931F93CF93DF93CDB7DEB72C970FB618
:102FF000F894DEBF0FBECDBF7C016B01422E1E8355
:103000000D83822F8695282E312C8FE391E09C0131
:10301000221933093C832B8349835A83642C712CF6
:10302000E981FA818191FA83E983882309F45CC0FC
:103030002B813C812E153F0508F473018052990BBA
:10304000AC0124E0440F551F2A95E1F76CE0689F1E
:103050009001699F300D1124DC86CB86470110E07A
:1030600000E0CA01845A9C4F98878F83F901E45B82
:10307000F64FFA87E9873CE0E985FA85431629F09F
:1030800060E1461205C0EF81F885E00FF11F549012
:10309000AB84BC8488E0A80EB11C57FE07C04D81EC
:1030A0005E816B857C85C4010E94F312550CEB8513
:1030B000FC853196FC87EB87CF018C199D0968163A
:1030C000790661F4FFEF8F1A9F0ADC86CB860F5FCB
:1030D0001F4F041580F2E20CF31CA2CF2B853C8518
:1030E0002A153B05D1F6F3CF2C960FB6F894DEBF28
:1030F0000FBECDBFDF91CF911F910F91FF90EF9049
:10310000DF90CF90BF90AF909F908F907F906F9007
:103110005F904F903F902F9008954F925F926F92E3
:103120007F928F929F92AF92BF92CF92DF92EF9257
:10313000FF920F931F93CF93DF933C012C0181E00B
:10314000481A5108620186E0CC0CDD1C8A95E1F733
:10315000C091DF0AD091E00A10928F0EE0905B0BD5
:10316000F0905C0B46018AE0880E911C97014EE1BD
:1031700050E06BE070E0C4010E948C1556018BE0BA
:10318000A80EB11C97014CE150E06CE070E0C50165
:103190000E948C1500915D0B10915E0B98014EE121
:1031A00050E06BE070E0C601C6960E948C15980155
:1031B0004CE150E06CE070E0C601C5960E948C15B1
:1031C00097014CE250E06BE070E0C4010E94BA1538
:1031D00097014AE250E06CE070E0C5010E94BA1528
:1031E00098014CE250E069E270E0C4010E94BA1517
:1031F00098014AE250E068E270E0C5010E94BA1509
:103200000091DD0A1091DE0A22E230E04DE251E049
:103210006AE070E089E090E00E94221383E04816A3
:10322000510408F0A5C003E110E09E0142E150E026
:1032300069E170E0C8010E948C15085C1F4F0336DD
:1032400081E0180791F70FE210E09E014BE050E09B
:1032500060E270E0C8010E948C15085C1F4F0734C3
:1032600081E0180791F7E090DB0AF090DC0A870113
:1032700022E030E04DE650E081E06816710409F08C
:1032800022C16DE470E08FE095E00E94551322E0CA
:1032900030E04DE650E06DE870E083E195E00E949B
:1032A000551322E030E04DE650E06DEC70E087E130
:1032B00095E00E94551322E030E04DE650E06DE0CD
:1032C00071E08BE195E00E9455130091A60D1091DD
:1032D000A70D22E030E04DE650E06DE070E08FE1B8
:1032E00095E00E9455138E0120E14DE055E069E024
:1032F00070E080E190E00E94E2170091D90A1091FD
:10330000DA0A2CE043E255E06BE070E08EE190E0F9
:103310000E94E2178E0120E149E255E069E070E089
:1033200080E490E00E94E21720E14DE255E069E080
:1033300070E088E790E00E94E21720E141E355E069
:1033400069E070E080EB90E00E94E21720E145E345
:1033500055E069E070E088EE90E00E94E21720E11D
:1033600049E355E069E070E08EE191E00E94E217E8
:10337000C3010497029708F095C0E090DB0AF09033
:10338000DC0A870122E030E04DE650E06DE070E0BD
:1033900084E06816710409F081C18FE195E00E9414
:1033A000551322E030E04DE650E06DE470E08FE030
:1033B00095E00E94551322E030E04DE650E06DE8C4
:1033C00070E083E195E00E94551322E030E04DE685
:1033D00050E06DE071E08BE195E00E9455130091A3
:1033E000A60D1091A70D22E030E04DE650E06DEC07
:1033F00070E087E195E00E94551303E110E09E0123
:103400004FE050E06BE170E0C8010E948C15045E53
:103410001F4F073481E0180791F78E0120E14DE03E
:1034200055E069E070E080E190E00E94E2170091D1
:10343000D90A1091DA0A2CE049E455E06BE070E01B
:103440008EE190E00E94E2178E0120E14FE455E00A
:1034500069E070E083E490E00E94E21720E142E539
:1034600055E069E070E08BE790E00E94E21720E110
:1034700045E555E069E070E083EB90E00E94E217DB
:1034800020E148E555E069E070E08BEE90E00E94B5
:10349000E21720E14BE555E069E070E083E291E05E
:1034A0000E94E217DF91CF911F910F91FF90EF9053
:1034B000DF90CF90BF90AF909F908F907F906F9054
:1034C0005F904F9008956DE070E082E0681671049F
:1034D00009F074C08FE195E00E94551322E030E0BE
:1034E0004DE650E06DE870E083E195E00E945513F1
:1034F00022E030E04DE650E06DEC70E087E195E0D1
:103500000E94551322E030E04DE650E06DE071E09E
:103510008BE195E00E9455130091A60D1091A70D27
:1035200022E030E04DE650E06DE470E08FE095E0A1
:103530000E9455138E0120E14DE055E069E070E0F6
:1035400080E190E00E94E2170091D90A1091DA0A16
:103550002CE043E255E06BE070E08EE190E00E94E9
:10356000E2178E0120E14BE357E069E070E083E46D
:1035700090E00E94E21720E14DE355E069E070E041
:103580008BE790E00E94E21720E140E455E069E01B
:1035900070E083EB90E00E94E21720E143E455E005
:1035A00069E070E08BEE90E00E94E21720E146E4D3
:1035B00055E069E070E083E291E0D8CE8FE195E0DC
:1035C0000E94551322E030E04DE650E06DE470E0DB
:1035D0008FE095E00E94551322E030E04DE650E088
:1035E0006DEC70E087E195E00E94551322E030E039
:1035F0004DE650E06DE071E08BE195E00E945513DF
:103600000091A60D1091A70D22E030E04DE650E0AC
:103610006DE870E083E195E00E9455138E0120E192
:103620004DE055E069E070E080E190E00E94E21733
:103630000091D90A1091DA0A2CE043E255E06BE0E0
:1036400070E08EE190E00E94E2178E0120E140E5FB
:1036500055E069E070E088E490E00E94E21720E124
:1036600043E555E069E070E080E890E00E94E217F1
:1036700020E146E555E069E070E088EB90E00E94CB
:10368000E21720E149E555E069E070E080EF90E065
:103690000E94E21720E14BE357E08BCF8FE195E0EA
:1036A0000E94551322E030E04DE650E06DE470E0FA
:1036B0008FE095E00E94551322E030E04DE650E0A7
:1036C0006DE870E083E195E00E94551322E030E060
:1036D0004DE650E06DEC70E087E195E00E945513F7
:1036E0000091A60D1091A70D22E030E04DE650E0CC
:1036F0006DE071E08BE195E00E94551303E110E06D
:103700009E014FE050E06BE170E0C8010E948C1513
:10371000025F1F4F093381E0180791F78E0120E106
:103720004DE055E069E070E080E190E00E94E21732
:103730000091D90A1091DA0A2CE04EE555E06BE0D1
:1037400070E088E290E00E94E2178E0120E144E6FA
:1037500055E069E070E086E590E00E94E21720E124
:103760004BE357E069E070E087E990E00E94E217E0
:1037700020E143E655E069E070E08DED90E00E94C5
:10378000E21720E14DE355E087CEEF92FF920F93D1
:103790001F93CF93DF9310928F0E20E430E040E32D
:1037A00051E068E070E087E090E00E94EA152EE0CA
:1037B00030E04DE150E060E570E082E190E00E9491
:1037C000EA152EE030E04DE150E060E570E082E582
:1037D00090E00E94EA152EE030E04DE150E060E517
:1037E00070E082E990E00E94EA152EE030E04DE1C1
:1037F00050E060E570E082ED90E00E94EA152EE076
:1038000030E04DE150E060E570E082E191E00E943F
:10381000EA152EE130E04CE250E064E670E08AE028
:1038200090E00E948316C0916B0DD0916C0D8E01BB
:1038300022E030E04DE650E06DE070E08FE195E091
:103840000E9455132EE130E04CE250E064E670E057
:103850008AE490E00E94831622E030E04DE650E0DA
:103860006DE470E08FE095E00E9455132EE130E0AA
:103870004CE250E064E670E08AE890E00E94831633
:1038800022E030E04DE650E06DE870E083E195E045
:103890000E9455132EE130E04CE250E064E670E007
:1038A0008AEC90E00E94831622E030E04DE650E082
:1038B0006DEC70E087E195E00E9455132EE130E059
:1038C0004CE250E064E670E08AE091E00E948316EA
:1038D00022E030E04DE650E06DE071E08BE195E0F4
:1038E0000E9455138091B20D90E00E948D1822E045
:1038F00030E04BE950E06AE070E086E695E00E9437
:1039000055132EE130E040E550E062E970E08FE3CE
:1039100090E00E94EA15E090A60DF090A70D8701B7
:1039200022E030E049E950E066E770E084E098E0AA
:103930000E9455138E0122E030E04BE950E065EA29
:1039400070E08BE695E00E9455132EE130E040E5F3
:1039500050E062E970E086EE90E00E94EA1587018F
:1039600022E030E049E950E068E171E080E795E06D
:103970000E9455138E0122E030E04DEC50E06AE0E9
:1039800070E082E795E00E9455132EE130E040E5BB
:1039900050E064EC70E08FE390E00E94EA1522E0D2
:1039A00030E04DEC50E065EA70E087E795E00E947A
:1039B00055132EE130E040E550E064EC70E086EE17
:1039C00090E0DF91CF911F910F91FF90EF900C94B9
:1039D000EA15CF92DF92EF92FF92CF93DF93EC0143
:1039E00070E060E090E080E00E94DB1260E082E244
:1039F0000E94B612409A80918F0E81111CC042988D
:103A0000C12C8CE2D82EEE24E394F12C8D2F0E9451
:103A1000AF128C2F0E94AF1281E0C81AD108E108C2
:103A2000F108A1F7429A289ADF91CF91FF90EF9089
:103A3000DF90CF9008952898E3CFCF93DF93EC01E8
:103A4000EAE0F1E0808180688083EBE0F1E0808152
:103A500080688083389A409A3A9A429A209A289AA3
:103A60006B9A739860E08AEE0E94D11260E28BEE4E
:103A70000E94D1126CE08CEE0E94D11264EC8DEEAB
:103A80000E94D11268E388EE0E94D11260E189EEB3
:103A90000E94D11261E081EF0E94D11260E182EFB9
:103AA0000E94D11261E080E40E94D11260E081E4C2
:103AB0000E94D11260E082E40E94D11260E183E4AE
:103AC0000E94D1126EE084E40E94D11264E285E487
:103AD0000E94D11264E086E40E94D11260E587E47E
:103AE0000E94D11262E088E40E94D11263E189E46D
:103AF0000E94D11269E18AE40E94D11269E18BE44B
:103B00000E94D11266E18CE40E94D1126BE180E543
:103B10000E94D11261E381E50E94D1126FE282E539
:103B20000E94D1126FE383E50E94D1126FE384E516
:103B30000E94D1126EE385E50E94D1126FE286E504
:103B40000E94D1126BE787E50E94D11269E088E5F7
:103B50000E94D11266E089E50E94D11266E08AE5F2
:103B60000E94D1126CE08BE50E94D1126DE18CE5D0
:103B70000E94D1126CEC8DE50E94D1126BE18BE1B9
:103B80000E94D11261E08AE10E94D1126FE284E2C8
:103B90000E94D11267E585E20E94D11268E883E2B3
:103BA0000E94D11264E388E10E94D11261E089E1B0
:103BB0000E94D11260E081E00E94D11268E88FE19A
:103BC0000E94D11265E070E080E090E00E94010C5C
:103BD00060E88FE10E94D11265E070E080E090E043
:103BE0000E94010C60E98FE10E94D11265E070E053
:103BF00080E090E00E94010C60ED8FE10E94D11204
:103C000065E070E080E090E00E94010C65E087E1F3
:103C10000E94D11260E086E30E94D11268E388E23C
:103C20000E94D11268E270E080E090E00E94010CF6
:103C30006FE388E20E94D11268E186E10E94D1120E
:103C400060E082E00E94D11260E083E00E94D11225
:103C500060E084E00E94D1126FEE85E00E94D112F4
:103C600060E086E00E94D11260E087E00E94D112FD
:103C700061E088E00E94D1126FE389E00E94D112D6
:103C800061E070E080E090E00E94010CCE010E94B3
:103C9000E91C739ADF91CF9108952F923F924F9232
:103CA0005F926F927F928F929F92AF92BF92CF92CC
:103CB000DF92EF92FF920F931F93CF93DF9300D089
:103CC0001F92CDB7DEB7FC012081222309F4A0C0EA
:103CD0009C838B830E94CC082B013C01EB81FC81EF
:103CE00081859285A385B485A3019201281B390B98
:103CF0004A0B5B0BDA01C9010397A105B10508F472
:103D000087C081E591E00E94E30860E0EB81FC81DF
:103D100081810E947A0B81EB0E94AF1281EC90E0CE
:103D20000E94680E8C0163E0169507956A95E1F78D
:103D30000150104F81E990E00E94680E73E0969563
:103D400087957A95E1F7081B190B0039F1E01F07F9
:103D50000CF44AC081E990E00E94680E81ED90E089
:103D60000E94680E5C0123E0B694A7942A95E1F7BF
:103D700081E990E00E94680E6C0133E0D694C7940C
:103D80003A95E1F781ED90E00E94680E4C0143E026
:103D9000969487944A95E1F781E990E00E94680E35
:103DA0001C0153E0369427945A95E1F780ED90E09A
:103DB0000E94680E7C0190E080E00E94680E9A8369
:103DC000898361E0EB81FC8181810E947A0B17FF7E
:103DD00014C0EB81FC8110861782EB81FC8182810B
:103DE0008F3FB1F0108214C0312C212C912C812CEA
:103DF000D12CC12CB12CA12CD9CF0039F1E01F0757
:103E0000F4F4EB81FC81108617820B3411052CF33E
:103E10000F900F900F900F90DF91CF911F910F9106
:103E2000FF90EF90DF90CF90BF90AF909F908F90DA
:103E30007F906F905F904F903F902F900895EB810F
:103E4000FC8110870783A70183E0569547958A95E3
:103E5000E1F7B401C5010E94360E8C0149815A81F7
:103E600093E0569547959A95E1F7B101C6010E94F6
:103E7000360EEB81FC8141865286638674861483FC
:103E8000038396838583C4CFCF93DF93EC01F894AB
:103E90000E944D1E789481E02F8138852039314071
:103EA0000CF480E0DF91CF910895CF93C82FF89460
:103EB00060E089E10E947A0B8DE591E00E94E308C1
:103EC0008C2F0E94AF1261E089E10E947A0B7894F6
:103ED000CF9108958FE60E94E60883E090E00E946B
:103EE0002D0E81E090E00E942D0E0E94B50D60E045
:103EF00084E00E947A0B80916A0D0E94551F60E059
:103F00008FE10E947A0B81E08093ED0D1092F40D09
:103F10000E94C51410928F0E0895CF93DF93EC0189
:103F20009A01AB01E889F98982E08083211581EE4D
:103F300038074105510599F160E079E08DE390E0A3
:103F40000E940E4EBA01A90141505109610971093F
:103F50007695679557954795CA01EC85FD859083C1
:103F6000EE85FF858083188EEC89FD8986E080834D
:103F7000EA89FB89808180618083EA89FB8980816D
:103F800088608083EA89FB89808180688083EA89F0
:103F9000FB8980818F7D8083DF91CF910895E889AF
:103FA000F989108280E190E0D8CFCF93C82F8AECB6
:103FB0009FE00E94A30AC23089F130F4CC23A1F023
:103FC000C13009F1CF910895C430F1F190F1C530BD
:103FD000C9F740E052EC61E070E08AEC9FE00E949B
:103FE0008D1F82ED95E00AC040EC52E160E070E088
:103FF0008AEC9FE00E948D1F8DE795E09093290247
:1040000080932802DFCF40E855E260E070E08AEC60
:104010009FE00E948D1F8EE895E0F0CF40E05BE4CA
:1040200060E070E08AEC9FE00E948D1F8FE995E0D0
:10403000E5CF40E056E960E070E08AEC9FE00E9446
:104040008D1F80EB95E0DACF40E051EE60E070E04C
:104050008AEC9FE00E948D1F81EC95E0CFCFCF933B
:10406000C82F8DE29FE00E94A30AC23089F130F48C
:10407000CC23A1F0C13009F1CF910895C430F1F102
:1040800090F1C530C9F740E052EC61E070E08DE29C
:104090009FE00E948D1F82ED95E00AC040EC52E146
:1040A00060E070E08DE29FE00E948D1F8DE795E05B
:1040B0009093190280931802DFCF40E855E260E048
:1040C00070E08DE29FE00E948D1F8EE895E0F0CFBA
:1040D00040E05BE460E070E08DE29FE00E948D1FB5
:1040E0008FE995E0E5CF40E056E960E070E08DE2D1
:1040F0009FE00E948D1F80EB95E0DACF40E051EE0B
:1041000060E070E08DE29FE00E948D1F81EC95E001
:10411000CFCFFB0101900020E9F73197AF01461B9B
:10412000570B0C9416098F929F92AF92BF92EF9209
:10413000FF920F931F93CF93DF93CDB7DEB7A19775
:104140000FB6F894DEBF0FBECDBF7C01FA01CB01E4
:1041500019A2223008F42AE08E010F5D1F4F822E33
:10416000912CB12CA12CBF01A50194010E940E4EEF
:10417000F901CA016A300CF5605DD8016E938D01BA
:10418000232B242B252B79F790E080E0109721F04A
:10419000BD01C7010E948920A1960FB6F894DEBF29
:1041A0000FBECDBFDF91CF911F910F91FF90EF9088
:1041B000BF90AF909F908F900895695CDECF0F9372
:1041C0001F93CF93DF93EC010E9489208C0163EE53
:1041D00075E0CE010E948920800F911FDF91CF9161
:1041E0001F910F910895813031F466EE75E08AECED
:1041F0009FE00C94DF20823029F466EE75E08DE2BA
:104200009FE0F7CF08950F931F938091EF0D8111D9
:1042100021C081E080938F0E0091D70D1091D80DB1
:1042200025E130E046E350E06EE870E084EF90E096
:104230000E94221380917C0D81110FC008E212E4CC
:1042400023E030E04EE850E064EF70E088EE95E067
:104250000E9455131F910F910895E0915B02F0E0C9
:10426000E059F24F8081811114C00091E00D10914E
:10427000E10D23E030E04EE850E064EF70E08CEEBA
:1042800095E00E94551360EF75E080E99EE00E9482
:10429000DF20E0915B02F0E0E059F24F8081813055
:1042A000C9F60091DC0D1091DD0D23E030E04EE801
:1042B00050E064EF70E085EE94E00E94551364EFE7
:1042C00075E080E99EE01F910F910C94DF200F9321
:1042D0001F938091EF0D811176C081E080938F0E46
:1042E0000091D70D1091D80D25E130E040E150E06C
:1042F0006EE870E08BE290E00E942213E0915B0296
:10430000F0E0E25DFD4F80818130E1F40091E50A4B
:104310001091E60A1093E40A0093E30A23E030E0E8
:104320004EE850E069E270E087E197E00E945513A3
:1043300068EF75E080E99EE00E94DF2060E081E2A6
:104340000E947A0BE0915B02F0E0E25DFD4F80811C
:104350008230E1F40091E10A1091E20A1093E40A3C
:104360000093E30A23E030E04EE850E069E270E0B9
:1043700080E595E00E9455136CEF75E080E99EE0C2
:104380000E94DF2061E081E20E947A0B80915B0253
:104390006091E30A7091E40A0E94FB1380917C0D06
:1043A000882389F081E080938F0E0091D70D1091C2
:1043B000D80D25E130E04AE450E06EE870E089E78E
:1043C00090E00E9422131F910F9108950F931F9365
:1043D000CF93DF9381E080938F0E22E330E046E7B6
:1043E00050E061E470E085E090E00E94831622E3F3
:1043F00030E04AE350E061E470E085EC90E00E9438
:10440000831622E330E04AE350E061E470E081E0AB
:1044100091E00E94831622E330E048E550E069EB2A
:1044200070E085E090E00E94831622E330E048E5EA
:1044300050E069EB70E083EE90E00E94831680917B
:104440007C0D2EE130E04CE350E08111C0C067E804
:1044500070E082E890E00E94831622E330E046E7B5
:1044600050E068E070E085E090E00E94EA1522E309
:1044700030E046E750E068E070E085EC90E00E94B4
:10448000EA1522E330E048E550E060E870E085E0BE
:1044900090E00E94EA1522E330E048E550E060E851
:1044A00070E083EE90E00E94EA1524E130E048E2FB
:1044B00050E068E070E08CE890E00E94EA1580919E
:1044C000F00D882309F49EC08091E00D9091E10DDC
:1044D0000E9475158091EF0D811162C0C0916B0D26
:1044E000D0916C0D81E080938F0E8091F00D813022
:1044F00091F48091ED0D81110EC00091A60D1091E7
:10450000A70D23E030E045E150E064E270E085EE85
:1045100094E00E9455138E0123E030E04FE450E018
:104520006AE170E080E096E00E94551323E030E0FD
:104530004FE450E06BED70E086EF94E00E9455137D
:1045400023E030E04FE450E067E171E088EF94E071
:104550000E94551323E030E047EC50E065E170E045
:1045600085E096E00E94551380917C0D81114FC02B
:1045700022E030E04FE850E067E870E089E096E044
:104580000E94551300916B0D10916C0D23E030E0EB
:1045900047EC50E064EF70E088E598E00E94551326
:1045A0000E94C51480915B02882309F44DC080915C
:1045B0005B026091A60D7091A70D0E94FB130E94F3
:1045C0006721DF91CF911F910F910C94032165E535
:1045D00070E082E890E00E94831622E330E048E534
:1045E00050E069EB70E084E790E00E94831622E3DC
:1045F00030E048E550E060E870E084E790E00E9439
:10460000EA152BCF8091E50D9091E60D61CF22E068
:1046100030E04DE550E067E870E089E096E00E9408
:1046200055130091A60D1091A70D23E030E047EC43
:1046300050E06AE770E08EE096E00E94551300912A
:10464000A60D1091A70DA2CF80915B0260E078EFDC
:10465000B4CF82E390E0A0E0B0E08093940E90931A
:10466000950EA093960EB093970E69EC7AE080E9D0
:104670009EE00E94DF206CE170E083E10E947F09F0
:10468000FC01E959F14F10820895813039F48AEC28
:104690009FE00C9489208DE29FE0FBCF8230D9F31C
:1046A0000895CF92DF92EF92FF920F931F93CF93D3
:1046B000DF93D82F0E94A7086B017C0180913D0EEB
:1046C000811165C0CD2F81E080933D0E80933C0E1B
:1046D0009FEF90933B0E10923A0E9D0F9093390EE0
:1046E0008093180E8091180E8E6D8093180E809115
:1046F000170E813009F07FC01092170E0E94A70894
:104700006B017C018091180E8093BB0080913F0E5D
:104710009091400EA091410EB091420E892B8A2BB0
:104720008B2BA1F00E94A70800913F0E1091400E24
:104730002091410E3091420E6C197D098E099F091E
:10474000061717072807390708F442C08091BC00F4
:1047500083FDD8CF85EC8093BC000E94A7086B0135
:104760007C0180913D0E813009F447C080913A0E62
:104770008D1710F4C0913A0EA9E1BEE0E5EFFDE01F
:1047800080E08C1751F19D9191938F5FFACF8091CA
:104790003F0E9091400EA091410EB091420E892B98
:1047A0008A2B8B2B09F48ACF0E94A70800913F0E19
:1047B0001091400E2091410E3091420E6C197D09EE
:1047C0008E099F09061717072807390708F076CFC3
:1047D00080913E0E0E94A40CC0E01092160EC09371
:1047E000150E8C2FDF91CF911F910F91FF90EF90BD
:1047F000DF90CF90089585EEAECF80913F0E9091DF
:10480000400EA091410EB091420E892B8A2B8B2B2A
:1048100009F4A7CF0E94A70800913F0E1091400E07
:104820002091410E3091420E6C197D098E099F092D
:10483000061717072807390708F093CFC9CFCF937A
:10484000DF938FE60E94E60883E090E00E942D0E41
:1048500080E00E94C50C81E090E00E94512361E05D
:1048600070E080E090E00E94010C0E940309EC01DE
:104870000E94B50DCE019927DF91CF9108958FE663
:104880000E94E60884E090E00E942D0E80E00E94E5
:10489000C50C82E090E00E94512361E070E080E06E
:1048A00090E00E94010C0E9403090E9403090C94ED
:1048B000B50D1F93CF93DF938FE60E94E60884E146
:1048C00090E00E942D0E80E00E94C50C82E090E0F6
:1048D0000E94512361E070E080E090E00E94010CB2
:1048E0000E940309EC010E940309182F0E94B50DD4
:1048F00084E0CC0FDD1F8A95E1F7C07FDF70812F48
:1049000082958F708C0F9D2F911DDF91CF911F91FC
:1049100008951F93CF93DF938FE60E94E6088EE100
:1049200090E00E942D0E80E00E94C50C82E090E095
:104930000E94512361E070E080E090E00E94010C51
:104940000E940309EC010E940309182F0E94B50D73
:1049500084E0CC0FDD1F8A95E1F7C07FDF70812FE7
:1049600082958F708C0F9D2F911DDF91CF911F919C
:104970000895AB01813089F4052E000C660B770B8E
:104980002AE08AEC9FE00C949320052E000C660B25
:10499000770B2AE08DE29FE0F6CF8230B1F30895E5
:1049A0000F931F938091EA0D81110E941E0F809139
:1049B000EA0D811104C060E084E00E947A0B81E07E
:1049C000809300021092F40D1092D60D1092D50D26
:1049D0001092D00D1092CF0D1092CC0D1092CB0DE5
:1049E00080916A0D0E94551F60E08FE10E947A0B52
:1049F0008091E00D9091E10D0E9475150E943F2479
:104A000010928F0E0091DE0D1091DF0D22E030E04C
:104A10004BEC50E066E470E086E592E00E945513AE
:104A200066E572E081E592E00E94974E1092D90D02
:104A30001F910F91089580915B02882309F457C05C
:104A400061E08FE10E947A0B80910002882361F07F
:104A50008091EA0D882341F062E370E080E090E00D
:104A60000E94010C1092000260E087E10E947A0B24
:104A700061E070E080E090E00E94010C61E087E17D
:104A80000E947A0B80916A0D805F0E94551F0E94E0
:104A90003F2461E084E00E947A0B81E08093F40D72
:104AA0008093D40D8093CE0D8093CA0D8093C30D57
:104AB0008093BD0D1092D30D1092CD0D1092C80DA4
:104AC0001092C20D1092BC0D8BE00E94510B892BED
:104AD00079F08091E70D9091E80D0E94751566E5DB
:104AE00072E081E592E00E94974E1092D90D0895F0
:104AF0008091E30D9091E40DF0CF85ED8093BC00A3
:104B000080913F0E9091400EA091410EB091420EC7
:104B10000796A11DB11D23E0B695A795979587959A
:104B20002A95D1F72091BC0024FD03C010923D0EC0
:104B3000089540913F0E5091400E6091410E70914A
:104B4000420E452B462B472B69F30097A105B10573
:104B500041F02AE22A95F1F700C00197A109B109B5
:104B6000E1CF80913E0E0C94A40C0C94D64D0F9383
:104B70001F93CF93DF9381E080938F0EC091D70D69
:104B8000D091D80D8E0125E130E04AE450E06EE886
:104B900070E089E790E00E94221325E130E04AE4CA
:104BA00050E067EC70E089E790E00E9422130091EA
:104BB000A60D1091A70D23E030E047EC50E06AE726
:104BC00070E08EE096E00E9455131092EE0D61E0C9
:104BD0008DE20E947A0B6AE070E080E090E00E9433
:104BE000010C1092670E82E390E0A0E0B0E08093A9
:104BF000940E9093950EA093960EB093970E63E14A
:104C000076E080E99EE00E94DF2065E070E083E1CD
:104C10000E947F09E091670EE093EB0AE154E431D2
:104C200008F035C00E2E000CFF0B8827E55EF94D0D
:104C30008F4F0C94774E80264726472647265926C5
:104C40002F264726662647264726472673264726C9
:104C5000472647264726472647268D268D2600913C
:104C6000E70D1091E80D22E030E04EE850E06AE7F1
:104C700070E086E196E00E945513E0915B02F0E05F
:104C8000E059F24F108210927B0D0E940321E091B7
:104C90005B0280915B02F0E0E059F24F90E06081AE
:104CA00047960E94B525DF91CF911F910F910C94EB
:104CB000D0240091E70D1091E80D22E030E04EE89D
:104CC00050E06AE770E08DE196E0D5CF0091DC0D11
:104CD0001091DD0D22E030E04EE850E06AE770E030
:104CE00084E296E0C8CF0091DC0D1091DD0D22E04A
:104CF00030E04EE850E06AE770E08BE296E0BBCF30
:104D00000091E00D1091E10D22E030E04EE850E01E
:104D10006AE770E082E396E0AECF0091E00D10917B
:104D2000E10D22E030E04EE850E060E870E089E319
:104D300096E00E945513E0915B02F0E0E059F24FDB
:104D400081E0808380937B0D0E94032182E390E0C9
:104D5000A0E0B0E08093940E9093950EA093960EF1
:104D6000B093970E6FE376E080E99EE00E94DF202B
:104D700068E070E083E10E947F098091670E8053B4
:104D8000E091690EE05394E6899FE00D1124809133
:104D9000680E80539AE0899FE00D1124F0E0EE0F39
:104DA000FF1FE45AFD4F808191812AE030E0B90174
:104DB0000E944F4ECB01B9010E94634E9F938F9387
:104DC0007F936F9382E496E09F938F931F9285E089
:104DD0008F9386E592E09F938F930E94C74E109227
:104DE0008F0E0091DE0D1091DF0D22E030E04BECD4
:104DF00050E066E470E086E592E00E94551366E5B7
:104E000072E081E592E00E94974E8DB79EB70A96B8
:104E10000FB6F8949EBF0FBE8DBF39CFEF92FF92B1
:104E20000F931F93CF93C1E0C0938F0EE090D70DE7
:104E3000F090D80D870125E130E04AE450E06EE8BB
:104E400070E089E790E00E94221325E130E04AE417
:104E500050E067EC70E089E790E00E9422138091B7
:104E6000EE0D81116BC080917B0D811104C0C09348
:104E70007B0D0E94032100916B0D10916C0D23E0BE
:104E800030E047EC50E06AE770E089E496E00E9489
:104E900055130091DC0D1091DD0D22E030E04EE85D
:104EA00050E06AE770E08EE496E00E94551310929D
:104EB0008F0E0091D70D1091D80D2AE130E04CE40F
:104EC00050E067EC70E082E490E00E94221364E618
:104ED00070E080E090E00E94010C81E08093EE0D94
:104EE0008091F40D8823D9F060E084E00E947A0B71
:104EF0001092F40DC0916A0D60E089E10E947A0B76
:104F00008DE591E00E94E3088C2F0E94AF1261E0D2
:104F100089E10E947A0B60E08FE10E947A0B60E0E9
:104F20008DE20E947A0B65E070E080E090E0CF9126
:104F30001F910F91FF90EF900C94010CCF911F9156
:104F40000F91FF90EF900C94B725CF93C82F8FEF60
:104F50008C0F823078F461E087E00E947A0BC130D8
:104F600071F060E086E00E947A0B60E086E00E94CB
:104F7000A80B0DC060E087E00E947A0BF2CF61E0E1
:104F800086E00E94A80B61E086E00E947A0B8CEF1D
:104F90008C0F833058F485E596E090931902809346
:104FA00018028DE29FE0CF910C94A30A8091EA0A47
:104FB0000E942F20C33069F482E08093EA0A62E005
:104FC00082E190E00E94B5258091EA0ACF910C948D
:104FD0002F20C73029F483E08093EA0A63E0F0CF02
:104FE000CF910895CF92DF92EF92FF920F931F938C
:104FF000CF93DF93D82FC62F81E080938F0ECD2ED5
:10500000D12C0091D70D1091D80D7601EE0CFF1C1C
:10501000F701E85EFD4F22E030E040E550E061E45A
:1050200070E0808191810E945513DB3008F034C01C
:10503000F6018827E15EF74D8F4F0C94774E2A28B2
:105040006E28C528EF284F29AE2906294C282E297D
:105050004C287F298091800D8430F1F08091EA0AFC
:10506000C130D1F58F5F8093EA0A8091EA0A8630D9
:1050700011F41092EA0A8091EA0A8F3F19F485E050
:105080008093EA0A6091EA0A82E190E00E94B525E5
:105090008091EA0A0E942F2064E670E080E090E0B0
:1050A0000E94010C0091A60D1091A70DF701E85E7A
:1050B000FD4F22E030E040E550E061E470E08081A7
:1050C00091810E945513DF91CF911F910F91FF9015
:1050D000EF90DF90CF9008958150C5CF8091E80A7E
:1050E0009091E90AC13009F04EC001969093E90A07
:1050F0008093E80A8091E80A9091E90A1816190647
:1051000034F081E090E09093E90A8093E80A80917E
:10511000E80A9091E90A0B9734F08AE090E09093C6
:10512000E90A8093E80A6091E80A7091E90A22E3AB
:10513000269FC001279F900D11249093EC0D809322
:10514000EB0D85E290E00E94B5258091EC0D8F93E8
:105150008091EB0D8F9386E696E09F938F931F923D
:1051600081E18F9380911B028F9380911A028F931C
:105170000E94C74E8DB79EB708960FB6F8949EBF93
:105180000FBE8DBF89CF0197B1CFC093EA0D60915B
:10519000EA0D84E290E00E94B5252091EA0D80910D
:1051A0001C0290911D02222339F067E776E00E94ED
:1051B000974E0E941E0F70CF68E876E00E94974ECF
:1051C00060E087E10E947A0B61E070E080E090E0AF
:1051D0000E94010C61E087E10E947A0B5DCFC093D1
:1051E000EC0A6091EC0A82E090E00E94B5252091E3
:1051F000EC0A80911E0290911F0269E976E021116C
:1052000002C06AEA76E00E94974E46CFC0933B0206
:105210006C2F80E190E00E94B52580913B028823AD
:10522000D9F083E41F928F938BEB96E09F938F933B
:105230001F9281E18F93809125028F9380912402A8
:105240008F930E94C74E8DB79EB708960FB6F894FD
:105250009EBF0FBE8DBF20CF86E4E4CF8091E70ACA
:10526000C130D9F48F5F8093E70A8091E70A8630D6
:1052700011F41092E70A8091E70A8F3F19F485E054
:105280008093E70A6091E70A85E190E00E94B525E6
:105290008091E70A0E94D51FFFCE8150E4CF809114
:1052A000800DC13051F58F5F8093800D8091800D0E
:1052B000883011F41092800D8091800D8F3F19F489
:1052C00087E08093800DC091800DEC2FF0E0EE0F11
:1052D000FF1FE45AFB4F6081718180912002909101
:1052E00021020E94974E6C2F84E190E00E94B52528
:1052F0008091800D0E94A527CFCE8150D5CF80917F
:105300006D0D811107C08DEC96E090932D02809376
:105310002C02C2CE8091C90D8823B1F01092C90D24
:1053200060E086E10E947A0B8EED96E090932D026C
:1053300080932C026091C90D83E290E00E94B52514
:1053400085E08093C80DA8CE81E08093C90D61E00F
:1053500086E10E947A0B8FEE96E0E8CF80911402EE
:1053600090911502A0911602B0911702C13009F078
:1053700067C00196A11DB11D809314029093150280
:10538000A0931602B0931702809114029091150217
:10539000A0911602B09117028E379105A105B105B3
:1053A00064F08DE790E0A0E0B0E080931402909369
:1053B0001502A0931602B0931702809114029091E7
:1053C0001502A0911602B09117028B349105A10528
:1053D000B10564F48BE490E0A0E0B0E080931402A7
:1053E00090931502A0931602B093170260911402D5
:1053F00086E190E00E94B525809117028F938091FD
:1054000016028F93809115028F93809114028F93CF
:1054100080E097E09F938F931F9281E18F9380911B
:1054200023028F93809122028F930E94C74E8DB7E3
:105430009EB70A960FB6F8949EBF0FBE8DBF2CCEB6
:105440000197A109B10998CF0F931F93CF93809132
:105450005B028B3008F0C2C08091F40D8111BEC098
:10546000E0915B02EB30C0F4F0E08827E55CF54D9D
:105470008F4F0C94774E462A4E2ABF2AC22AC52A3D
:10548000CD2AD02AD82ADB2AE32AEB2A61E177E069
:1054900080E99EE00E94DF20C0E007C065E177E080
:1054A00080E99EE00E94DF20C0E280915B028823B9
:1054B00019F180917C0D8823F9F08091EF0D811115
:1054C0001BC0E0915B02F0E0E059F24F80818093D5
:1054D0007B0D81E080938F0E0091D70D1091D80D38
:1054E00025E130E04AE450E06EE870E089E790E0C2
:1054F0000E9422130E940321C0936A0D80915B02D7
:10550000882321F190915B028091590B9817F1F05B
:1055100080916A0D0E94551F80915B028093590B08
:1055200080915B026091E30A7091E40A0E94FB1390
:1055300060915B0281E090E00E94B5250E946721A6
:1055400062E370E080E090E00E94010C80915B02D9
:10555000811144C090915B028091590B9817F1F131
:1055600080915B028093590B80915B026091E30A0A
:105570007091E40ACF911F910F910C94FB1369E194
:1055800077E08ECF6DE177E08BCF61E277E080E965
:105590009EE00E94DF20C8E088CF65E277E0F7CF89
:1055A00069E277E080E99EE00E94DF20C4E07DCFE1
:1055B0006DE277E0F7CF61E377E080E99EE00E945B
:1055C000DF20C2E072CF65E377E080E99EE00E94D1
:1055D000DF20C1E06ACF69E377E05ACFCF911F9116
:1055E0000F9108950C94CE4D4F925F926F927F92DF
:1055F0008F929F92AF92BF92CF92DF92EF92FF92E3
:105600000F931F93CF93DF93CDB7DEB7C055D1096A
:105610000FB6F894DEBF0FBECDBF8C0193EEE92E1E
:105620009BE0F92E0130110521F081E6E82E8BE098
:10563000F82EF70101900020E9F731976F01CE189D
:10564000DF085701F50181915F01082E000C990BCD
:105650000E94864EF50131978083C5018E199F09FE
:10566000C816D9067CF76EE377E0C7010E94AD4EFD
:10567000009739F461E477E0C7010E94AD4E0097CE
:1056800071F1FC013496AEEEBAE00A9621912D93A9
:105690008E179F07D9F71092F40A8EEE9AE00E94B7
:1056A000514D4B015C01F6ED8F1AF6E09F0AA108FF
:1056B000B1082FE5821621E09206A104B10408F09A
:1056C0006FC38AE080935B0280915B029091ED0A48
:1056D000891709F4F9C380915B028093ED0A64E4B1
:1056E00077E0C7010E94AD4E892B09F43CC467E402
:1056F00077E0C7010E94AD4EFC01892BF9F094813F
:105700009B3309F0E9C367E477E0802F0E944523CB
:1057100060915B0270E0802F0E94B924802F0E946C
:10572000F32080915B028B3010F010925B0290911D
:105730005B028091590B98130E94242A6CE477E055
:10574000C7010E94AD4E6C01009729F1FC018481D4
:105750008B3371F46CE477E0802F0E9445236091D5
:10576000F00D70E0802F0E94B924802F0E94F3205A
:10577000F6018481803321F41092F00D0E94C5144B
:10578000F6018481813339F481E08093F00D109229
:10579000ED0D0E94C51461E577E0C7010E94AD4E92
:1057A0006C01009709F448C0FC0184818B3391F4AB
:1057B00061E577E0802F0E944523E0915B02F0E0F5
:1057C000E25DFD4F608170E0802F0E94B924802F40
:1057D0000E94F320F60184818133A9F4E0915B02F9
:1057E000F0E0E25DFD4F81E08083E0915B0280911B
:1057F0005B02F0E0E25DFD4F90E0608103960E9465
:10580000B5250E946721F60184818233A9F4E091D5
:105810005B02F0E0E25DFD4F82E08083E0915B029D
:1058200080915B02F0E0E25DFD4F90E060810396C5
:105830000E94B5250E94672166E577E0C7010E94B6
:10584000AD4E6C01009771F1FC0184818B3399F4AA
:1058500066E577E0802F0E94452380913B0260E45B
:1058600076E0882311F06BE577E0802F0E944523D6
:10587000802F0E94F320F6018481863439F410923F
:105880003B0260E080E190E00E94B525F601848152
:10589000833441F481E080933B0261E080E190E059
:1058A0000E94B5256DE577E0C7010E94AD4E6C0101
:1058B000009709F44CC0FC0184818B3399F46DE5A9
:1058C00077E0802F0E9445238091EC0A6DE175E01E
:1058D000882311F064E577E0802F0E944523802F14
:1058E0000E94F320F60184818434B1F41092EC0A12
:1058F0006091EC0A82E090E00E94B5256AEA76E0C9
:1059000080911E0290911F020E94974E0E947B1070
:105910000E94C51B0E94E621F60184818E34B9F4F1
:1059200081E08093EC0A6091EC0A82E090E00E94B2
:10593000B52569E976E080911E0290911F020E94D0
:10594000974E0E947B100E94C51B0E94E62162E6D2
:1059500077E0C7010E94AD4E892B39F162E677E00E
:10596000802F0E9445230E94892468E270E00E94F3
:105970004F4E7F936F9387E697E09F938F931F928D
:1059800084E08F93CE0101966C019F938F930E94C8
:10599000C74EB601802F0E944523802F0E94F3201E
:1059A0000FB6F894DEBF0FBECDBF6BE677E0C70140
:1059B0000E94AD4E892B71F06BE677E0802F0E943C
:1059C000452360917C0D70E0802F0E94B924802FC8
:1059D0000E94F32060E777E0C7010E94AD4E6C01A2
:1059E000009709F447C0FC0184818B3371F460E7B0
:1059F00077E0802F0E94452360917B0D70E0802F1F
:105A00000E94B924802F0E94F320F6018481813303
:105A1000B9F481E080937B0DE0915B02F0E0E05906
:105A2000F24F8083E0915B0280915B02F0E0E059ED
:105A3000F24F90E0608147960E94B5250E940321B5
:105A4000F60184818033B1F410927B0DE0915B020A
:105A5000F0E0E059F24F1082E0915B0280915B022E
:105A6000F0E0E059F24F90E0608147960E94B52542
:105A70000E94032165E777E0C7010E94AD4E892BA4
:105A800029F080917C0D81110E940E276AE777E052
:105A9000C7010E94AD4E892B89F06AE777E0802F1D
:105AA0000E9445236091EB0A013009F074C28AEC30
:105AB0009FE00E94810A802F0E94F3206FE777E029
:105AC000C7010E94AD4E892B71F06FE777E0802F00
:105AD0000E9445236091EE0D70E0802F0E94B92452
